{
  "_format": "hh-sol-artifact-1",
  "contractName": "Election",
  "sourceName": "contracts/Election.sol",
  "abi": [
    {
      "inputs": [],
      "stateMutability": "nonpayable",
      "type": "constructor"
    },
    {
      "inputs": [
        {
          "internalType": "uint256",
          "name": "",
          "type": "uint256"
        }
      ],
      "name": "candidates",
      "outputs": [
        {
          "internalType": "uint256",
          "name": "id",
          "type": "uint256"
        },
        {
          "internalType": "string",
          "name": "name",
          "type": "string"
        },
        {
          "internalType": "uint256",
          "name": "voteCount",
          "type": "uint256"
        }
      ],
      "stateMutability": "view",
      "type": "function"
    },
    {
      "inputs": [],
      "name": "end",
      "outputs": [],
      "stateMutability": "nonpayable",
      "type": "function"
    },
    {
      "inputs": [],
      "name": "getCandidatesCount",
      "outputs": [
        {
          "internalType": "uint256",
          "name": "",
          "type": "uint256"
        }
      ],
      "stateMutability": "view",
      "type": "function"
    },
    {
      "inputs": [],
      "name": "goingon",
      "outputs": [
        {
          "internalType": "bool",
          "name": "",
          "type": "bool"
        }
      ],
      "stateMutability": "view",
      "type": "function"
    },
    {
      "inputs": [],
      "name": "owner",
      "outputs": [
        {
          "internalType": "address",
          "name": "",
          "type": "address"
        }
      ],
      "stateMutability": "view",
      "type": "function"
    },
    {
      "inputs": [],
      "name": "totalVote",
      "outputs": [
        {
          "internalType": "uint256",
          "name": "",
          "type": "uint256"
        }
      ],
      "stateMutability": "view",
      "type": "function"
    },
    {
      "inputs": [
        {
          "internalType": "uint256",
          "name": "_candidateId",
          "type": "uint256"
        }
      ],
      "name": "vote",
      "outputs": [],
      "stateMutability": "nonpayable",
      "type": "function"
    },
    {
      "inputs": [
        {
          "internalType": "address",
          "name": "",
          "type": "address"
        }
      ],
      "name": "voters",
      "outputs": [
        {
          "internalType": "bool",
          "name": "",
          "type": "bool"
        }
      ],
      "stateMutability": "view",
      "type": "function"
    }
  ],
  "bytecode": "0x608060405260016000806101000a81548160ff021916908315150217905550600060035534801561002f57600080fd5b5033600060016101000a81548173ffffffffffffffffffffffffffffffffffffffff021916908373ffffffffffffffffffffffffffffffffffffffff16021790555060026040518060600160405280600081526020016040518060400160405280600481526020017f446520310000000000000000000000000000000000000000000000000000000081525081526020016000815250908060018154018082558091505060019003906000526020600020906003020160009091909190915060008201518160000155602082015181600101908161010d91906104c1565b5060408201518160020155505060026040518060600160405280600181526020016040518060400160405280600481526020017f44652032000000000000000000000000000000000000000000000000000000008152508152602001600081525090806001815401808255809150506001900390600052602060002090600302016000909190919091506000820151816000015560208201518160010190816101b691906104c1565b5060408201518160020155505060026040518060600160405280600281526020016040518060400160405280600481526020017f446520330000000000000000000000000000000000000000000000000000000081525081526020016000815250908060018154018082558091505060019003906000526020600020906003020160009091909190915060008201518160000155602082015181600101908161025f91906104c1565b50604082015181600201555050610593565b600081519050919050565b7f4e487b7100000000000000000000000000000000000000000000000000000000600052604160045260246000fd5b7f4e487b7100000000000000000000000000000000000000000000000000000000600052602260045260246000fd5b600060028204905060018216806102f257607f821691505b602082108103610305576103046102ab565b5b50919050565b60008190508160005260206000209050919050565b60006020601f8301049050919050565b600082821b905092915050565b60006008830261036d7fffffffffffffffffffffffffffffffffffffffffffffffffffffffffffffffff82610330565b6103778683610330565b95508019841693508086168417925050509392505050565b6000819050919050565b6000819050919050565b60006103be6103b96103b48461038f565b610399565b61038f565b9050919050565b6000819050919050565b6103d8836103a3565b6103ec6103e4826103c5565b84845461033d565b825550505050565b600090565b6104016103f4565b61040c8184846103cf565b505050565b5b81811015610430576104256000826103f9565b600181019050610412565b5050565b601f821115610475576104468161030b565b61044f84610320565b8101602085101561045e578190505b61047261046a85610320565b830182610411565b50505b505050565b600082821c905092915050565b60006104986000198460080261047a565b1980831691505092915050565b60006104b18383610487565b9150826002028217905092915050565b6104ca82610271565b67ffffffffffffffff8111156104e3576104e261027c565b5b6104ed82546102da565b6104f8828285610434565b600060209050601f83116001811461052b5760008415610519578287015190505b61052385826104a5565b86555061058b565b601f1984166105398661030b565b60005b828110156105615784890151825560018201915060208501945060208101905061053c565b8683101561057e578489015161057a601f891682610487565b8355505b6001600288020188555050505b505050505050565b610a6a806105a26000396000f3fe608060405234801561001057600080fd5b50600436106100885760003560e01c8063a3ec138d1161005b578063a3ec138d14610117578063bb9aa28f14610147578063efbe1c1c14610165578063f1cea4c71461016f57610088565b80630121b93f1461008d5780630a3a906c146100a95780633477ee2e146100c75780638da5cb5b146100f9575b600080fd5b6100a760048036038101906100a2919061056e565b61018d565b005b6100b161035b565b6040516100be91906105b6565b60405180910390f35b6100e160048036038101906100dc919061056e565b61036c565b6040516100f093929190610670565b60405180910390f35b61010161042e565b60405161010e91906106ef565b60405180910390f35b610131600480360381019061012c9190610736565b610454565b60405161013e91906105b6565b60405180910390f35b61014f610474565b60405161015c9190610763565b60405180910390f35b61016d610481565b005b61017761052d565b6040516101849190610763565b60405180910390f35b600160003373ffffffffffffffffffffffffffffffffffffffff1673ffffffffffffffffffffffffffffffffffffffff16815260200190815260200160002060009054906101000a900460ff161561021a576040517f08c379a0000000000000000000000000000000000000000000000000000000008152600401610211906107ca565b60405180910390fd5b6002805490508110610261576040517f08c379a000000000000000000000000000000000000000000000000000000000815260040161025890610836565b60405180910390fd5b60008054906101000a900460ff166102ae576040517f08c379a00000000000000000000000000000000000000000000000000000000081526004016102a5906108a2565b60405180910390fd5b60018060003373ffffffffffffffffffffffffffffffffffffffff1673ffffffffffffffffffffffffffffffffffffffff16815260200190815260200160002060006101000a81548160ff02191690831515021790555060028181548110610319576103186108c2565b5b9060005260206000209060030201600201600081548092919061033b90610920565b91905055506003600081548092919061035390610920565b919050555050565b60008054906101000a900460ff1681565b6002818154811061037c57600080fd5b90600052602060002090600302016000915090508060000154908060010180546103a590610997565b80601f01602080910402602001604051908101604052809291908181526020018280546103d190610997565b801561041e5780601f106103f35761010080835404028352916020019161041e565b820191906000526020600020905b81548152906001019060200180831161040157829003601f168201915b5050505050908060020154905083565b600060019054906101000a900473ffffffffffffffffffffffffffffffffffffffff1681565b60016020528060005260406000206000915054906101000a900460ff1681565b6000600280549050905090565b600060019054906101000a900473ffffffffffffffffffffffffffffffffffffffff1673ffffffffffffffffffffffffffffffffffffffff163373ffffffffffffffffffffffffffffffffffffffff1614610511576040517f08c379a000000000000000000000000000000000000000000000000000000000815260040161050890610a14565b60405180910390fd5b60008060006101000a81548160ff021916908315150217905550565b60035481565b600080fd5b6000819050919050565b61054b81610538565b811461055657600080fd5b50565b60008135905061056881610542565b92915050565b60006020828403121561058457610583610533565b5b600061059284828501610559565b91505092915050565b60008115159050919050565b6105b08161059b565b82525050565b60006020820190506105cb60008301846105a7565b92915050565b6105da81610538565b82525050565b600081519050919050565b600082825260208201905092915050565b60005b8381101561061a5780820151818401526020810190506105ff565b60008484015250505050565b6000601f19601f8301169050919050565b6000610642826105e0565b61064c81856105eb565b935061065c8185602086016105fc565b61066581610626565b840191505092915050565b600060608201905061068560008301866105d1565b81810360208301526106978185610637565b90506106a660408301846105d1565b949350505050565b600073ffffffffffffffffffffffffffffffffffffffff82169050919050565b60006106d9826106ae565b9050919050565b6106e9816106ce565b82525050565b600060208201905061070460008301846106e0565b92915050565b610713816106ce565b811461071e57600080fd5b50565b6000813590506107308161070a565b92915050565b60006020828403121561074c5761074b610533565b5b600061075a84828501610721565b91505092915050565b600060208201905061077860008301846105d1565b92915050565b7f416c726561647920766f74656400000000000000000000000000000000000000600082015250565b60006107b4600d836105eb565b91506107bf8261077e565b602082019050919050565b600060208201905081810360008301526107e3816107a7565b9050919050565b7f496e76616c69642063616e646964617465000000000000000000000000000000600082015250565b60006108206011836105eb565b915061082b826107ea565b602082019050919050565b6000602082019050818103600083015261084f81610813565b9050919050565b7f456c656374696f6e20656e646564000000000000000000000000000000000000600082015250565b600061088c600e836105eb565b915061089782610856565b602082019050919050565b600060208201905081810360008301526108bb8161087f565b9050919050565b7f4e487b7100000000000000000000000000000000000000000000000000000000600052603260045260246000fd5b7f4e487b7100000000000000000000000000000000000000000000000000000000600052601160045260246000fd5b600061092b82610538565b91507fffffffffffffffffffffffffffffffffffffffffffffffffffffffffffffffff820361095d5761095c6108f1565b5b600182019050919050565b7f4e487b7100000000000000000000000000000000000000000000000000000000600052602260045260246000fd5b600060028204905060018216806109af57607f821691505b6020821081036109c2576109c1610968565b5b50919050565b7f4f4e4c59204f574e45522043414e20454e440000000000000000000000000000600082015250565b60006109fe6012836105eb565b9150610a09826109c8565b602082019050919050565b60006020820190508181036000830152610a2d816109f1565b905091905056fea2646970667358221220d782ddb8b996570fd89d330c98663b61a8890c192da45ec5b6afa184769b2c8e64736f6c634300081c0033",
  "linkReferences": {},
  "deployedLinkReferences": {}
}